{
	"token.sol": {
		"SafeMath": {
			"abi": [
				{
					"inputs": [
						{
							"internalType": "uint256",
							"name": "a",
							"type": "uint256"
						},
						{
							"internalType": "uint256",
							"name": "b",
							"type": "uint256"
						}
					],
					"name": "safeAdd",
					"outputs": [
						{
							"internalType": "uint256",
							"name": "c",
							"type": "uint256"
						}
					],
					"stateMutability": "pure",
					"type": "function"
				},
				{
					"inputs": [
						{
							"internalType": "uint256",
							"name": "a",
							"type": "uint256"
						},
						{
							"internalType": "uint256",
							"name": "b",
							"type": "uint256"
						}
					],
					"name": "safeDiv",
					"outputs": [
						{
							"internalType": "uint256",
							"name": "c",
							"type": "uint256"
						}
					],
					"stateMutability": "pure",
					"type": "function"
				},
				{
					"inputs": [
						{
							"internalType": "uint256",
							"name": "a",
							"type": "uint256"
						},
						{
							"internalType": "uint256",
							"name": "b",
							"type": "uint256"
						}
					],
					"name": "safeMul",
					"outputs": [
						{
							"internalType": "uint256",
							"name": "c",
							"type": "uint256"
						}
					],
					"stateMutability": "pure",
					"type": "function"
				},
				{
					"inputs": [
						{
							"internalType": "uint256",
							"name": "a",
							"type": "uint256"
						},
						{
							"internalType": "uint256",
							"name": "b",
							"type": "uint256"
						}
					],
					"name": "safeSub",
					"outputs": [
						{
							"internalType": "uint256",
							"name": "c",
							"type": "uint256"
						}
					],
					"stateMutability": "pure",
					"type": "function"
				}
			],
			"devdoc": {
				"kind": "dev",
				"methods": {},
				"version": 1
			},
			"evm": {
				"assembly": "    /* \"token.sol\":92:716  contract SafeMath {... */\n  mstore(0x40, 0x80)\n  callvalue\n  dup1\n  iszero\n  tag_1\n  jumpi\n  0x00\n  dup1\n  revert\ntag_1:\n  pop\n  dataSize(sub_0)\n  dup1\n  dataOffset(sub_0)\n  0x00\n  codecopy\n  0x00\n  return\nstop\n\nsub_0: assembly {\n        /* \"token.sol\":92:716  contract SafeMath {... */\n      mstore(0x40, 0x80)\n      callvalue\n      dup1\n      iszero\n      tag_1\n      jumpi\n      0x00\n      dup1\n      revert\n    tag_1:\n      pop\n      jumpi(tag_2, lt(calldatasize, 0x04))\n      shr(0xe0, calldataload(0x00))\n      dup1\n      0xa293d1e8\n      eq\n      tag_3\n      jumpi\n      dup1\n      0xb5931f7c\n      eq\n      tag_4\n      jumpi\n      dup1\n      0xd05c78da\n      eq\n      tag_5\n      jumpi\n      dup1\n      0xe6cb9013\n      eq\n      tag_6\n      jumpi\n    tag_2:\n      0x00\n      dup1\n      revert\n        /* \"token.sol\":264:405  function safeSub(uint a, uint b) public pure returns (uint c) {... */\n    tag_3:\n      tag_7\n      0x04\n      dup1\n      calldatasize\n      sub\n      dup2\n      add\n      swap1\n      tag_8\n      swap2\n      swap1\n      tag_9\n      jump\t// in\n    tag_8:\n      tag_10\n      jump\t// in\n    tag_7:\n      mload(0x40)\n      tag_11\n      swap2\n      swap1\n      tag_12\n      jump\t// in\n    tag_11:\n      mload(0x40)\n      dup1\n      swap2\n      sub\n      swap1\n      return\n        /* \"token.sol\":578:713  function safeDiv(uint a, uint b) public pure returns (uint c) {... */\n    tag_4:\n      tag_13\n      0x04\n      dup1\n      calldatasize\n      sub\n      dup2\n      add\n      swap1\n      tag_14\n      swap2\n      swap1\n      tag_9\n      jump\t// in\n    tag_14:\n      tag_15\n      jump\t// in\n    tag_13:\n      mload(0x40)\n      tag_16\n      swap2\n      swap1\n      tag_12\n      jump\t// in\n    tag_16:\n      mload(0x40)\n      dup1\n      swap2\n      sub\n      swap1\n      return\n        /* \"token.sol\":413:570  function safeMul(uint a, uint b) public pure returns (uint c) {... */\n    tag_5:\n      tag_17\n      0x04\n      dup1\n      calldatasize\n      sub\n      dup2\n      add\n      swap1\n      tag_18\n      swap2\n      swap1\n      tag_9\n      jump\t// in\n    tag_18:\n      tag_19\n      jump\t// in\n    tag_17:\n      mload(0x40)\n      tag_20\n      swap2\n      swap1\n      tag_12\n      jump\t// in\n    tag_20:\n      mload(0x40)\n      dup1\n      swap2\n      sub\n      swap1\n      return\n        /* \"token.sol\":119:256  function safeAdd(uint a, uint b) public pure returns (uint c) {... */\n    tag_6:\n      tag_21\n      0x04\n      dup1\n      calldatasize\n      sub\n      dup2\n      add\n      swap1\n      tag_22\n      swap2\n      swap1\n      tag_9\n      jump\t// in\n    tag_22:\n      tag_23\n      jump\t// in\n    tag_21:\n      mload(0x40)\n      tag_24\n      swap2\n      swap1\n      tag_12\n      jump\t// in\n    tag_24:\n      mload(0x40)\n      dup1\n      swap2\n      sub\n      swap1\n      return\n        /* \"token.sol\":264:405  function safeSub(uint a, uint b) public pure returns (uint c) {... */\n    tag_10:\n        /* \"token.sol\":318:324  uint c */\n      0x00\n        /* \"token.sol\":350:351  a */\n      dup3\n        /* \"token.sol\":345:346  b */\n      dup3\n        /* \"token.sol\":345:351  b <= a */\n      gt\n      iszero\n        /* \"token.sol\":337:377  require(b <= a, \"Subtraction underflow\") */\n      tag_26\n      jumpi\n      mload(0x40)\n      0x08c379a000000000000000000000000000000000000000000000000000000000\n      dup2\n      mstore\n      0x04\n      add\n      tag_27\n      swap1\n      tag_28\n      jump\t// in\n    tag_27:\n      mload(0x40)\n      dup1\n      swap2\n      sub\n      swap1\n      revert\n    tag_26:\n        /* \"token.sol\":396:397  b */\n      dup2\n        /* \"token.sol\":392:393  a */\n      dup4\n        /* \"token.sol\":392:397  a - b */\n      tag_29\n      swap2\n      swap1\n      tag_30\n      jump\t// in\n    tag_29:\n        /* \"token.sol\":388:397  c = a - b */\n      swap1\n      pop\n        /* \"token.sol\":264:405  function safeSub(uint a, uint b) public pure returns (uint c) {... */\n      swap3\n      swap2\n      pop\n      pop\n      jump\t// out\n        /* \"token.sol\":578:713  function safeDiv(uint a, uint b) public pure returns (uint c) {... */\n    tag_15:\n        /* \"token.sol\":632:638  uint c */\n      0x00\n        /* \"token.sol\":663:664  0 */\n      dup1\n        /* \"token.sol\":659:660  b */\n      dup3\n        /* \"token.sol\":659:664  b > 0 */\n      gt\n        /* \"token.sol\":651:685  require(b > 0, \"Division by zero\") */\n      tag_32\n      jumpi\n      mload(0x40)\n      0x08c379a000000000000000000000000000000000000000000000000000000000\n      dup2\n      mstore\n      0x04\n      add\n      tag_33\n      swap1\n      tag_34\n      jump\t// in\n    tag_33:\n      mload(0x40)\n      dup1\n      swap2\n      sub\n      swap1\n      revert\n    tag_32:\n        /* \"token.sol\":704:705  b */\n      dup2\n        /* \"token.sol\":700:701  a */\n      dup4\n        /* \"token.sol\":700:705  a / b */\n      tag_35\n      swap2\n      swap1\n      tag_36\n      jump\t// in\n    tag_35:\n        /* \"token.sol\":696:705  c = a / b */\n      swap1\n      pop\n        /* \"token.sol\":578:713  function safeDiv(uint a, uint b) public pure returns (uint c) {... */\n      swap3\n      swap2\n      pop\n      pop\n      jump\t// out\n        /* \"token.sol\":413:570  function safeMul(uint a, uint b) public pure returns (uint c) {... */\n    tag_19:\n        /* \"token.sol\":467:473  uint c */\n      0x00\n        /* \"token.sol\":494:495  b */\n      dup2\n        /* \"token.sol\":490:491  a */\n      dup4\n        /* \"token.sol\":490:495  a * b */\n      tag_38\n      swap2\n      swap1\n      tag_39\n      jump\t// in\n    tag_38:\n        /* \"token.sol\":486:495  c = a * b */\n      swap1\n      pop\n        /* \"token.sol\":519:520  0 */\n      0x00\n        /* \"token.sol\":514:515  a */\n      dup4\n        /* \"token.sol\":514:520  a == 0 */\n      eq\n        /* \"token.sol\":514:534  a == 0 || c / a == b */\n      dup1\n      tag_40\n      jumpi\n      pop\n        /* \"token.sol\":533:534  b */\n      dup2\n        /* \"token.sol\":528:529  a */\n      dup4\n        /* \"token.sol\":524:525  c */\n      dup3\n        /* \"token.sol\":524:529  c / a */\n      tag_41\n      swap2\n      swap1\n      tag_36\n      jump\t// in\n    tag_41:\n        /* \"token.sol\":524:534  c / a == b */\n      eq\n        /* \"token.sol\":514:534  a == 0 || c / a == b */\n    tag_40:\n        /* \"token.sol\":506:562  require(a == 0 || c / a == b, \"Multiplication overflow\") */\n      tag_42\n      jumpi\n      mload(0x40)\n      0x08c379a000000000000000000000000000000000000000000000000000000000\n      dup2\n      mstore\n      0x04\n      add\n      tag_43\n      swap1\n      tag_44\n      jump\t// in\n    tag_43:\n      mload(0x40)\n      dup1\n      swap2\n      sub\n      swap1\n      revert\n    tag_42:\n        /* \"token.sol\":413:570  function safeMul(uint a, uint b) public pure returns (uint c) {... */\n      swap3\n      swap2\n      pop\n      pop\n      jump\t// out\n        /* \"token.sol\":119:256  function safeAdd(uint a, uint b) public pure returns (uint c) {... */\n    tag_23:\n        /* \"token.sol\":173:179  uint c */\n      0x00\n        /* \"token.sol\":200:201  b */\n      dup2\n        /* \"token.sol\":196:197  a */\n      dup4\n        /* \"token.sol\":196:201  a + b */\n      tag_46\n      swap2\n      swap1\n      tag_47\n      jump\t// in\n    tag_46:\n        /* \"token.sol\":192:201  c = a + b */\n      swap1\n      pop\n        /* \"token.sol\":225:226  a */\n      dup3\n        /* \"token.sol\":220:221  c */\n      dup2\n        /* \"token.sol\":220:226  c >= a */\n      lt\n      iszero\n        /* \"token.sol\":212:248  require(c >= a, \"Addition overflow\") */\n      tag_48\n      jumpi\n      mload(0x40)\n      0x08c379a000000000000000000000000000000000000000000000000000000000\n      dup2\n      mstore\n      0x04\n      add\n      tag_49\n      swap1\n      tag_50\n      jump\t// in\n    tag_49:\n      mload(0x40)\n      dup1\n      swap2\n      sub\n      swap1\n      revert\n    tag_48:\n        /* \"token.sol\":119:256  function safeAdd(uint a, uint b) public pure returns (uint c) {... */\n      swap3\n      swap2\n      pop\n      pop\n      jump\t// out\n        /* \"#utility.yul\":88:205   */\n    tag_52:\n        /* \"#utility.yul\":197:198   */\n      0x00\n        /* \"#utility.yul\":194:195   */\n      dup1\n        /* \"#utility.yul\":187:199   */\n      revert\n        /* \"#utility.yul\":334:411   */\n    tag_54:\n        /* \"#utility.yul\":371:378   */\n      0x00\n        /* \"#utility.yul\":400:405   */\n      dup2\n        /* \"#utility.yul\":389:405   */\n      swap1\n      pop\n        /* \"#utility.yul\":334:411   */\n      swap2\n      swap1\n      pop\n      jump\t// out\n        /* \"#utility.yul\":417:539   */\n    tag_55:\n        /* \"#utility.yul\":490:514   */\n      tag_75\n        /* \"#utility.yul\":508:513   */\n      dup2\n        /* \"#utility.yul\":490:514   */\n      tag_54\n      jump\t// in\n    tag_75:\n        /* \"#utility.yul\":483:488   */\n      dup2\n        /* \"#utility.yul\":480:515   */\n      eq\n        /* \"#utility.yul\":470:533   */\n      tag_76\n      jumpi\n        /* \"#utility.yul\":529:530   */\n      0x00\n        /* \"#utility.yul\":526:527   */\n      dup1\n        /* \"#utility.yul\":519:531   */\n      revert\n        /* \"#utility.yul\":470:533   */\n    tag_76:\n        /* \"#utility.yul\":417:539   */\n      pop\n      jump\t// out\n        /* \"#utility.yul\":545:684   */\n    tag_56:\n        /* \"#utility.yul\":591:596   */\n      0x00\n        /* \"#utility.yul\":629:635   */\n      dup2\n        /* \"#utility.yul\":616:636   */\n      calldataload\n        /* \"#utility.yul\":607:636   */\n      swap1\n      pop\n        /* \"#utility.yul\":645:678   */\n      tag_78\n        /* \"#utility.yul\":672:677   */\n      dup2\n        /* \"#utility.yul\":645:678   */\n      tag_55\n      jump\t// in\n    tag_78:\n        /* \"#utility.yul\":545:684   */\n      swap3\n      swap2\n      pop\n      pop\n      jump\t// out\n        /* \"#utility.yul\":690:1164   */\n    tag_9:\n        /* \"#utility.yul\":758:764   */\n      0x00\n        /* \"#utility.yul\":766:772   */\n      dup1\n        /* \"#utility.yul\":815:817   */\n      0x40\n        /* \"#utility.yul\":803:812   */\n      dup4\n        /* \"#utility.yul\":794:801   */\n      dup6\n        /* \"#utility.yul\":790:813   */\n      sub\n        /* \"#utility.yul\":786:818   */\n      slt\n        /* \"#utility.yul\":783:902   */\n      iszero\n      tag_80\n      jumpi\n        /* \"#utility.yul\":821:900   */\n      tag_81\n      tag_52\n      jump\t// in\n    tag_81:\n        /* \"#utility.yul\":783:902   */\n    tag_80:\n        /* \"#utility.yul\":941:942   */\n      0x00\n        /* \"#utility.yul\":966:1019   */\n      tag_82\n        /* \"#utility.yul\":1011:1018   */\n      dup6\n        /* \"#utility.yul\":1002:1008   */\n      dup3\n        /* \"#utility.yul\":991:1000   */\n      dup7\n        /* \"#utility.yul\":987:1009   */\n      add\n        /* \"#utility.yul\":966:1019   */\n      tag_56\n      jump\t// in\n    tag_82:\n        /* \"#utility.yul\":956:1019   */\n      swap3\n      pop\n        /* \"#utility.yul\":912:1029   */\n      pop\n        /* \"#utility.yul\":1068:1070   */\n      0x20\n        /* \"#utility.yul\":1094:1147   */\n      tag_83\n        /* \"#utility.yul\":1139:1146   */\n      dup6\n        /* \"#utility.yul\":1130:1136   */\n      dup3\n        /* \"#utility.yul\":1119:1128   */\n      dup7\n        /* \"#utility.yul\":1115:1137   */\n      add\n        /* \"#utility.yul\":1094:1147   */\n      tag_56\n      jump\t// in\n    tag_83:\n        /* \"#utility.yul\":1084:1147   */\n      swap2\n      pop\n        /* \"#utility.yul\":1039:1157   */\n      pop\n        /* \"#utility.yul\":690:1164   */\n      swap3\n      pop\n      swap3\n      swap1\n      pop\n      jump\t// out\n        /* \"#utility.yul\":1170:1288   */\n    tag_57:\n        /* \"#utility.yul\":1257:1281   */\n      tag_85\n        /* \"#utility.yul\":1275:1280   */\n      dup2\n        /* \"#utility.yul\":1257:1281   */\n      tag_54\n      jump\t// in\n    tag_85:\n        /* \"#utility.yul\":1252:1255   */\n      dup3\n        /* \"#utility.yul\":1245:1282   */\n      mstore\n        /* \"#utility.yul\":1170:1288   */\n      pop\n      pop\n      jump\t// out\n        /* \"#utility.yul\":1294:1516   */\n    tag_12:\n        /* \"#utility.yul\":1387:1391   */\n      0x00\n        /* \"#utility.yul\":1425:1427   */\n      0x20\n        /* \"#utility.yul\":1414:1423   */\n      dup3\n        /* \"#utility.yul\":1410:1428   */\n      add\n        /* \"#utility.yul\":1402:1428   */\n      swap1\n      pop\n        /* \"#utility.yul\":1438:1509   */\n      tag_87\n        /* \"#utility.yul\":1506:1507   */\n      0x00\n        /* \"#utility.yul\":1495:1504   */\n      dup4\n        /* \"#utility.yul\":1491:1508   */\n      add\n        /* \"#utility.yul\":1482:1488   */\n      dup5\n        /* \"#utility.yul\":1438:1509   */\n      tag_57\n      jump\t// in\n    tag_87:\n        /* \"#utility.yul\":1294:1516   */\n      swap3\n      swap2\n      pop\n      pop\n      jump\t// out\n        /* \"#utility.yul\":1522:1691   */\n    tag_58:\n        /* \"#utility.yul\":1606:1617   */\n      0x00\n        /* \"#utility.yul\":1640:1646   */\n      dup3\n        /* \"#utility.yul\":1635:1638   */\n      dup3\n        /* \"#utility.yul\":1628:1647   */\n      mstore\n        /* \"#utility.yul\":1680:1684   */\n      0x20\n        /* \"#utility.yul\":1675:1678   */\n      dup3\n        /* \"#utility.yul\":1671:1685   */\n      add\n        /* \"#utility.yul\":1656:1685   */\n      swap1\n      pop\n        /* \"#utility.yul\":1522:1691   */\n      swap3\n      swap2\n      pop\n      pop\n      jump\t// out\n        /* \"#utility.yul\":1697:1868   */\n    tag_59:\n        /* \"#utility.yul\":1837:1860   */\n      0x5375627472616374696f6e20756e646572666c6f770000000000000000000000\n        /* \"#utility.yul\":1833:1834   */\n      0x00\n        /* \"#utility.yul\":1825:1831   */\n      dup3\n        /* \"#utility.yul\":1821:1835   */\n      add\n        /* \"#utility.yul\":1814:1861   */\n      mstore\n        /* \"#utility.yul\":1697:1868   */\n      pop\n      jump\t// out\n        /* \"#utility.yul\":1874:2240   */\n    tag_60:\n        /* \"#utility.yul\":2016:2019   */\n      0x00\n        /* \"#utility.yul\":2037:2104   */\n      tag_91\n        /* \"#utility.yul\":2101:2103   */\n      0x15\n        /* \"#utility.yul\":2096:2099   */\n      dup4\n        /* \"#utility.yul\":2037:2104   */\n      tag_58\n      jump\t// in\n    tag_91:\n        /* \"#utility.yul\":2030:2104   */\n      swap2\n      pop\n        /* \"#utility.yul\":2113:2206   */\n      tag_92\n        /* \"#utility.yul\":2202:2205   */\n      dup3\n        /* \"#utility.yul\":2113:2206   */\n      tag_59\n      jump\t// in\n    tag_92:\n        /* \"#utility.yul\":2231:2233   */\n      0x20\n        /* \"#utility.yul\":2226:2229   */\n      dup3\n        /* \"#utility.yul\":2222:2234   */\n      add\n        /* \"#utility.yul\":2215:2234   */\n      swap1\n      pop\n        /* \"#utility.yul\":1874:2240   */\n      swap2\n      swap1\n      pop\n      jump\t// out\n        /* \"#utility.yul\":2246:2665   */\n    tag_28:\n        /* \"#utility.yul\":2412:2416   */\n      0x00\n        /* \"#utility.yul\":2450:2452   */\n      0x20\n        /* \"#utility.yul\":2439:2448   */\n      dup3\n        /* \"#utility.yul\":2435:2453   */\n      add\n        /* \"#utility.yul\":2427:2453   */\n      swap1\n      pop\n        /* \"#utility.yul\":2499:2508   */\n      dup2\n        /* \"#utility.yul\":2493:2497   */\n      dup2\n        /* \"#utility.yul\":2489:2509   */\n      sub\n        /* \"#utility.yul\":2485:2486   */\n      0x00\n        /* \"#utility.yul\":2474:2483   */\n      dup4\n        /* \"#utility.yul\":2470:2487   */\n      add\n        /* \"#utility.yul\":2463:2510   */\n      mstore\n        /* \"#utility.yul\":2527:2658   */\n      tag_94\n        /* \"#utility.yul\":2653:2657   */\n      dup2\n        /* \"#utility.yul\":2527:2658   */\n      tag_60\n      jump\t// in\n    tag_94:\n        /* \"#utility.yul\":2519:2658   */\n      swap1\n      pop\n        /* \"#utility.yul\":2246:2665   */\n      swap2\n      swap1\n      pop\n      jump\t// out\n        /* \"#utility.yul\":2671:2851   */\n    tag_61:\n        /* \"#utility.yul\":2719:2796   */\n      0x4e487b7100000000000000000000000000000000000000000000000000000000\n        /* \"#utility.yul\":2716:2717   */\n      0x00\n        /* \"#utility.yul\":2709:2797   */\n      mstore\n        /* \"#utility.yul\":2816:2820   */\n      0x11\n        /* \"#utility.yul\":2813:2814   */\n      0x04\n        /* \"#utility.yul\":2806:2821   */\n      mstore\n        /* \"#utility.yul\":2840:2844   */\n      0x24\n        /* \"#utility.yul\":2837:2838   */\n      0x00\n        /* \"#utility.yul\":2830:2845   */\n      revert\n        /* \"#utility.yul\":2857:3051   */\n    tag_30:\n        /* \"#utility.yul\":2897:2901   */\n      0x00\n        /* \"#utility.yul\":2917:2937   */\n      tag_97\n        /* \"#utility.yul\":2935:2936   */\n      dup3\n        /* \"#utility.yul\":2917:2937   */\n      tag_54\n      jump\t// in\n    tag_97:\n        /* \"#utility.yul\":2912:2937   */\n      swap2\n      pop\n        /* \"#utility.yul\":2951:2971   */\n      tag_98\n        /* \"#utility.yul\":2969:2970   */\n      dup4\n        /* \"#utility.yul\":2951:2971   */\n      tag_54\n      jump\t// in\n    tag_98:\n        /* \"#utility.yul\":2946:2971   */\n      swap3\n      pop\n        /* \"#utility.yul\":2995:2996   */\n      dup3\n        /* \"#utility.yul\":2992:2993   */\n      dup3\n        /* \"#utility.yul\":2988:2997   */\n      sub\n        /* \"#utility.yul\":2980:2997   */\n      swap1\n      pop\n        /* \"#utility.yul\":3019:3020   */\n      dup2\n        /* \"#utility.yul\":3013:3017   */\n      dup2\n        /* \"#utility.yul\":3010:3021   */\n      gt\n        /* \"#utility.yul\":3007:3044   */\n      iszero\n      tag_99\n      jumpi\n        /* \"#utility.yul\":3024:3042   */\n      tag_100\n      tag_61\n      jump\t// in\n    tag_100:\n        /* \"#utility.yul\":3007:3044   */\n    tag_99:\n        /* \"#utility.yul\":2857:3051   */\n      swap3\n      swap2\n      pop\n      pop\n      jump\t// out\n        /* \"#utility.yul\":3057:3223   */\n    tag_62:\n        /* \"#utility.yul\":3197:3215   */\n      0x4469766973696f6e206279207a65726f00000000000000000000000000000000\n        /* \"#utility.yul\":3193:3194   */\n      0x00\n        /* \"#utility.yul\":3185:3191   */\n      dup3\n        /* \"#utility.yul\":3181:3195   */\n      add\n        /* \"#utility.yul\":3174:3216   */\n      mstore\n        /* \"#utility.yul\":3057:3223   */\n      pop\n      jump\t// out\n        /* \"#utility.yul\":3229:3595   */\n    tag_63:\n        /* \"#utility.yul\":3371:3374   */\n      0x00\n        /* \"#utility.yul\":3392:3459   */\n      tag_103\n        /* \"#utility.yul\":3456:3458   */\n      0x10\n        /* \"#utility.yul\":3451:3454   */\n      dup4\n        /* \"#utility.yul\":3392:3459   */\n      tag_58\n      jump\t// in\n    tag_103:\n        /* \"#utility.yul\":3385:3459   */\n      swap2\n      pop\n        /* \"#utility.yul\":3468:3561   */\n      tag_104\n        /* \"#utility.yul\":3557:3560   */\n      dup3\n        /* \"#utility.yul\":3468:3561   */\n      tag_62\n      jump\t// in\n    tag_104:\n        /* \"#utility.yul\":3586:3588   */\n      0x20\n        /* \"#utility.yul\":3581:3584   */\n      dup3\n        /* \"#utility.yul\":3577:3589   */\n      add\n        /* \"#utility.yul\":3570:3589   */\n      swap1\n      pop\n        /* \"#utility.yul\":3229:3595   */\n      swap2\n      swap1\n      pop\n      jump\t// out\n        /* \"#utility.yul\":3601:4020   */\n    tag_34:\n        /* \"#utility.yul\":3767:3771   */\n      0x00\n        /* \"#utility.yul\":3805:3807   */\n      0x20\n        /* \"#utility.yul\":3794:3803   */\n      dup3\n        /* \"#utility.yul\":3790:3808   */\n      add\n        /* \"#utility.yul\":3782:3808   */\n      swap1\n      pop\n        /* \"#utility.yul\":3854:3863   */\n      dup2\n        /* \"#utility.yul\":3848:3852   */\n      dup2\n        /* \"#utility.yul\":3844:3864   */\n      sub\n        /* \"#utility.yul\":3840:3841   */\n      0x00\n        /* \"#utility.yul\":3829:3838   */\n      dup4\n        /* \"#utility.yul\":3825:3842   */\n      add\n        /* \"#utility.yul\":3818:3865   */\n      mstore\n        /* \"#utility.yul\":3882:4013   */\n      tag_106\n        /* \"#utility.yul\":4008:4012   */\n      dup2\n        /* \"#utility.yul\":3882:4013   */\n      tag_63\n      jump\t// in\n    tag_106:\n        /* \"#utility.yul\":3874:4013   */\n      swap1\n      pop\n        /* \"#utility.yul\":3601:4020   */\n      swap2\n      swap1\n      pop\n      jump\t// out\n        /* \"#utility.yul\":4026:4206   */\n    tag_64:\n        /* \"#utility.yul\":4074:4151   */\n      0x4e487b7100000000000000000000000000000000000000000000000000000000\n        /* \"#utility.yul\":4071:4072   */\n      0x00\n        /* \"#utility.yul\":4064:4152   */\n      mstore\n        /* \"#utility.yul\":4171:4175   */\n      0x12\n        /* \"#utility.yul\":4168:4169   */\n      0x04\n        /* \"#utility.yul\":4161:4176   */\n      mstore\n        /* \"#utility.yul\":4195:4199   */\n      0x24\n        /* \"#utility.yul\":4192:4193   */\n      0x00\n        /* \"#utility.yul\":4185:4200   */\n      revert\n        /* \"#utility.yul\":4212:4397   */\n    tag_36:\n        /* \"#utility.yul\":4252:4253   */\n      0x00\n        /* \"#utility.yul\":4269:4289   */\n      tag_109\n        /* \"#utility.yul\":4287:4288   */\n      dup3\n        /* \"#utility.yul\":4269:4289   */\n      tag_54\n      jump\t// in\n    tag_109:\n        /* \"#utility.yul\":4264:4289   */\n      swap2\n      pop\n        /* \"#utility.yul\":4303:4323   */\n      tag_110\n        /* \"#utility.yul\":4321:4322   */\n      dup4\n        /* \"#utility.yul\":4303:4323   */\n      tag_54\n      jump\t// in\n    tag_110:\n        /* \"#utility.yul\":4298:4323   */\n      swap3\n      pop\n        /* \"#utility.yul\":4342:4343   */\n      dup3\n        /* \"#utility.yul\":4332:4367   */\n      tag_111\n      jumpi\n        /* \"#utility.yul\":4347:4365   */\n      tag_112\n      tag_64\n      jump\t// in\n    tag_112:\n        /* \"#utility.yul\":4332:4367   */\n    tag_111:\n        /* \"#utility.yul\":4389:4390   */\n      dup3\n        /* \"#utility.yul\":4386:4387   */\n      dup3\n        /* \"#utility.yul\":4382:4391   */\n      div\n        /* \"#utility.yul\":4377:4391   */\n      swap1\n      pop\n        /* \"#utility.yul\":4212:4397   */\n      swap3\n      swap2\n      pop\n      pop\n      jump\t// out\n        /* \"#utility.yul\":4403:4813   */\n    tag_39:\n        /* \"#utility.yul\":4443:4450   */\n      0x00\n        /* \"#utility.yul\":4466:4486   */\n      tag_114\n        /* \"#utility.yul\":4484:4485   */\n      dup3\n        /* \"#utility.yul\":4466:4486   */\n      tag_54\n      jump\t// in\n    tag_114:\n        /* \"#utility.yul\":4461:4486   */\n      swap2\n      pop\n        /* \"#utility.yul\":4500:4520   */\n      tag_115\n        /* \"#utility.yul\":4518:4519   */\n      dup4\n        /* \"#utility.yul\":4500:4520   */\n      tag_54\n      jump\t// in\n    tag_115:\n        /* \"#utility.yul\":4495:4520   */\n      swap3\n      pop\n        /* \"#utility.yul\":4555:4556   */\n      dup3\n        /* \"#utility.yul\":4552:4553   */\n      dup3\n        /* \"#utility.yul\":4548:4557   */\n      mul\n        /* \"#utility.yul\":4577:4607   */\n      tag_116\n        /* \"#utility.yul\":4595:4606   */\n      dup2\n        /* \"#utility.yul\":4577:4607   */\n      tag_54\n      jump\t// in\n    tag_116:\n        /* \"#utility.yul\":4566:4607   */\n      swap2\n      pop\n        /* \"#utility.yul\":4756:4757   */\n      dup3\n        /* \"#utility.yul\":4747:4754   */\n      dup3\n        /* \"#utility.yul\":4743:4758   */\n      div\n        /* \"#utility.yul\":4740:4741   */\n      dup5\n        /* \"#utility.yul\":4737:4759   */\n      eq\n        /* \"#utility.yul\":4717:4718   */\n      dup4\n        /* \"#utility.yul\":4710:4719   */\n      iszero\n        /* \"#utility.yul\":4690:4773   */\n      or\n        /* \"#utility.yul\":4667:4806   */\n      tag_117\n      jumpi\n        /* \"#utility.yul\":4786:4804   */\n      tag_118\n      tag_61\n      jump\t// in\n    tag_118:\n        /* \"#utility.yul\":4667:4806   */\n    tag_117:\n        /* \"#utility.yul\":4451:4813   */\n      pop\n        /* \"#utility.yul\":4403:4813   */\n      swap3\n      swap2\n      pop\n      pop\n      jump\t// out\n        /* \"#utility.yul\":4819:4992   */\n    tag_65:\n        /* \"#utility.yul\":4959:4984   */\n      0x4d756c7469706c69636174696f6e206f766572666c6f77000000000000000000\n        /* \"#utility.yul\":4955:4956   */\n      0x00\n        /* \"#utility.yul\":4947:4953   */\n      dup3\n        /* \"#utility.yul\":4943:4957   */\n      add\n        /* \"#utility.yul\":4936:4985   */\n      mstore\n        /* \"#utility.yul\":4819:4992   */\n      pop\n      jump\t// out\n        /* \"#utility.yul\":4998:5364   */\n    tag_66:\n        /* \"#utility.yul\":5140:5143   */\n      0x00\n        /* \"#utility.yul\":5161:5228   */\n      tag_121\n        /* \"#utility.yul\":5225:5227   */\n      0x17\n        /* \"#utility.yul\":5220:5223   */\n      dup4\n        /* \"#utility.yul\":5161:5228   */\n      tag_58\n      jump\t// in\n    tag_121:\n        /* \"#utility.yul\":5154:5228   */\n      swap2\n      pop\n        /* \"#utility.yul\":5237:5330   */\n      tag_122\n        /* \"#utility.yul\":5326:5329   */\n      dup3\n        /* \"#utility.yul\":5237:5330   */\n      tag_65\n      jump\t// in\n    tag_122:\n        /* \"#utility.yul\":5355:5357   */\n      0x20\n        /* \"#utility.yul\":5350:5353   */\n      dup3\n        /* \"#utility.yul\":5346:5358   */\n      add\n        /* \"#utility.yul\":5339:5358   */\n      swap1\n      pop\n        /* \"#utility.yul\":4998:5364   */\n      swap2\n      swap1\n      pop\n      jump\t// out\n        /* \"#utility.yul\":5370:5789   */\n    tag_44:\n        /* \"#utility.yul\":5536:5540   */\n      0x00\n        /* \"#utility.yul\":5574:5576   */\n      0x20\n        /* \"#utility.yul\":5563:5572   */\n      dup3\n        /* \"#utility.yul\":5559:5577   */\n      add\n        /* \"#utility.yul\":5551:5577   */\n      swap1\n      pop\n        /* \"#utility.yul\":5623:5632   */\n      dup2\n        /* \"#utility.yul\":5617:5621   */\n      dup2\n        /* \"#utility.yul\":5613:5633   */\n      sub\n        /* \"#utility.yul\":5609:5610   */\n      0x00\n        /* \"#utility.yul\":5598:5607   */\n      dup4\n        /* \"#utility.yul\":5594:5611   */\n      add\n        /* \"#utility.yul\":5587:5634   */\n      mstore\n        /* \"#utility.yul\":5651:5782   */\n      tag_124\n        /* \"#utility.yul\":5777:5781   */\n      dup2\n        /* \"#utility.yul\":5651:5782   */\n      tag_66\n      jump\t// in\n    tag_124:\n        /* \"#utility.yul\":5643:5782   */\n      swap1\n      pop\n        /* \"#utility.yul\":5370:5789   */\n      swap2\n      swap1\n      pop\n      jump\t// out\n        /* \"#utility.yul\":5795:5986   */\n    tag_47:\n        /* \"#utility.yul\":5835:5838   */\n      0x00\n        /* \"#utility.yul\":5854:5874   */\n      tag_126\n        /* \"#utility.yul\":5872:5873   */\n      dup3\n        /* \"#utility.yul\":5854:5874   */\n      tag_54\n      jump\t// in\n    tag_126:\n        /* \"#utility.yul\":5849:5874   */\n      swap2\n      pop\n        /* \"#utility.yul\":5888:5908   */\n      tag_127\n        /* \"#utility.yul\":5906:5907   */\n      dup4\n        /* \"#utility.yul\":5888:5908   */\n      tag_54\n      jump\t// in\n    tag_127:\n        /* \"#utility.yul\":5883:5908   */\n      swap3\n      pop\n        /* \"#utility.yul\":5931:5932   */\n      dup3\n        /* \"#utility.yul\":5928:5929   */\n      dup3\n        /* \"#utility.yul\":5924:5933   */\n      add\n        /* \"#utility.yul\":5917:5933   */\n      swap1\n      pop\n        /* \"#utility.yul\":5952:5955   */\n      dup1\n        /* \"#utility.yul\":5949:5950   */\n      dup3\n        /* \"#utility.yul\":5946:5956   */\n      gt\n        /* \"#utility.yul\":5943:5979   */\n      iszero\n      tag_128\n      jumpi\n        /* \"#utility.yul\":5959:5977   */\n      tag_129\n      tag_61\n      jump\t// in\n    tag_129:\n        /* \"#utility.yul\":5943:5979   */\n    tag_128:\n        /* \"#utility.yul\":5795:5986   */\n      swap3\n      swap2\n      pop\n      pop\n      jump\t// out\n        /* \"#utility.yul\":5992:6159   */\n    tag_67:\n        /* \"#utility.yul\":6132:6151   */\n      0x4164646974696f6e206f766572666c6f77000000000000000000000000000000\n        /* \"#utility.yul\":6128:6129   */\n      0x00\n        /* \"#utility.yul\":6120:6126   */\n      dup3\n        /* \"#utility.yul\":6116:6130   */\n      add\n        /* \"#utility.yul\":6109:6152   */\n      mstore\n        /* \"#utility.yul\":5992:6159   */\n      pop\n      jump\t// out\n        /* \"#utility.yul\":6165:6531   */\n    tag_68:\n        /* \"#utility.yul\":6307:6310   */\n      0x00\n        /* \"#utility.yul\":6328:6395   */\n      tag_132\n        /* \"#utility.yul\":6392:6394   */\n      0x11\n        /* \"#utility.yul\":6387:6390   */\n      dup4\n        /* \"#utility.yul\":6328:6395   */\n      tag_58\n      jump\t// in\n    tag_132:\n        /* \"#utility.yul\":6321:6395   */\n      swap2\n      pop\n        /* \"#utility.yul\":6404:6497   */\n      tag_133\n        /* \"#utility.yul\":6493:6496   */\n      dup3\n        /* \"#utility.yul\":6404:6497   */\n      tag_67\n      jump\t// in\n    tag_133:\n        /* \"#utility.yul\":6522:6524   */\n      0x20\n        /* \"#utility.yul\":6517:6520   */\n      dup3\n        /* \"#utility.yul\":6513:6525   */\n      add\n        /* \"#utility.yul\":6506:6525   */\n      swap1\n      pop\n        /* \"#utility.yul\":6165:6531   */\n      swap2\n      swap1\n      pop\n      jump\t// out\n        /* \"#utility.yul\":6537:6956   */\n    tag_50:\n        /* \"#utility.yul\":6703:6707   */\n      0x00\n        /* \"#utility.yul\":6741:6743   */\n      0x20\n        /* \"#utility.yul\":6730:6739   */\n      dup3\n        /* \"#utility.yul\":6726:6744   */\n      add\n        /* \"#utility.yul\":6718:6744   */\n      swap1\n      pop\n        /* \"#utility.yul\":6790:6799   */\n      dup2\n        /* \"#utility.yul\":6784:6788   */\n      dup2\n        /* \"#utility.yul\":6780:6800   */\n      sub\n        /* \"#utility.yul\":6776:6777   */\n      0x00\n        /* \"#utility.yul\":6765:6774   */\n      dup4\n        /* \"#utility.yul\":6761:6778   */\n      add\n        /* \"#utility.yul\":6754:6801   */\n      mstore\n        /* \"#utility.yul\":6818:6949   */\n      tag_135\n        /* \"#utility.yul\":6944:6948   */\n      dup2\n        /* \"#utility.yul\":6818:6949   */\n      tag_68\n      jump\t// in\n    tag_135:\n        /* \"#utility.yul\":6810:6949   */\n      swap1\n      pop\n        /* \"#utility.yul\":6537:6956   */\n      swap2\n      swap1\n      pop\n      jump\t// out\n\n    auxdata: 0xa2646970667358221220b7ca224b5f027cc5dc3523b5faec7ecce129539a9706ed72598772edbdb7275664736f6c634300081a0033\n}\n",
				"bytecode": {
					"linkReferences": {},
					"object": "6080604052348015600e575f80fd5b506106358061001c5f395ff3fe608060405234801561000f575f80fd5b506004361061004a575f3560e01c8063a293d1e81461004e578063b5931f7c1461007e578063d05c78da146100ae578063e6cb9013146100de575b5f80fd5b610068600480360381019061006391906102b8565b61010e565b6040516100759190610305565b60405180910390f35b610098600480360381019061009391906102b8565b610166565b6040516100a59190610305565b60405180910390f35b6100c860048036038101906100c391906102b8565b6101bd565b6040516100d59190610305565b60405180910390f35b6100f860048036038101906100f391906102b8565b610229565b6040516101059190610305565b60405180910390f35b5f82821115610152576040517f08c379a000000000000000000000000000000000000000000000000000000000815260040161014990610378565b60405180910390fd5b818361015e91906103c3565b905092915050565b5f8082116101a9576040517f08c379a00000000000000000000000000000000000000000000000000000000081526004016101a090610440565b60405180910390fd5b81836101b5919061048b565b905092915050565b5f81836101ca91906104bb565b90505f8314806101e457508183826101e2919061048b565b145b610223576040517f08c379a000000000000000000000000000000000000000000000000000000000815260040161021a90610546565b60405180910390fd5b92915050565b5f81836102369190610564565b90508281101561027b576040517f08c379a0000000000000000000000000000000000000000000000000000000008152600401610272906105e1565b60405180910390fd5b92915050565b5f80fd5b5f819050919050565b61029781610285565b81146102a1575f80fd5b50565b5f813590506102b28161028e565b92915050565b5f80604083850312156102ce576102cd610281565b5b5f6102db858286016102a4565b92505060206102ec858286016102a4565b9150509250929050565b6102ff81610285565b82525050565b5f6020820190506103185f8301846102f6565b92915050565b5f82825260208201905092915050565b7f5375627472616374696f6e20756e646572666c6f7700000000000000000000005f82015250565b5f61036260158361031e565b915061036d8261032e565b602082019050919050565b5f6020820190508181035f83015261038f81610356565b9050919050565b7f4e487b71000000000000000000000000000000000000000000000000000000005f52601160045260245ffd5b5f6103cd82610285565b91506103d883610285565b92508282039050818111156103f0576103ef610396565b5b92915050565b7f4469766973696f6e206279207a65726f000000000000000000000000000000005f82015250565b5f61042a60108361031e565b9150610435826103f6565b602082019050919050565b5f6020820190508181035f8301526104578161041e565b9050919050565b7f4e487b71000000000000000000000000000000000000000000000000000000005f52601260045260245ffd5b5f61049582610285565b91506104a083610285565b9250826104b0576104af61045e565b5b828204905092915050565b5f6104c582610285565b91506104d083610285565b92508282026104de81610285565b915082820484148315176104f5576104f4610396565b5b5092915050565b7f4d756c7469706c69636174696f6e206f766572666c6f770000000000000000005f82015250565b5f61053060178361031e565b915061053b826104fc565b602082019050919050565b5f6020820190508181035f83015261055d81610524565b9050919050565b5f61056e82610285565b915061057983610285565b925082820190508082111561059157610590610396565b5b92915050565b7f4164646974696f6e206f766572666c6f770000000000000000000000000000005f82015250565b5f6105cb60118361031e565b91506105d682610597565b602082019050919050565b5f6020820190508181035f8301526105f8816105bf565b905091905056fea2646970667358221220b7ca224b5f027cc5dc3523b5faec7ecce129539a9706ed72598772edbdb7275664736f6c634300081a0033",
					"opcodes": "PUSH1 0x80 PUSH1 0x40 MSTORE CALLVALUE DUP1 ISZERO PUSH1 0xE JUMPI PUSH0 DUP1 REVERT JUMPDEST POP PUSH2 0x635 DUP1 PUSH2 0x1C PUSH0 CODECOPY PUSH0 RETURN INVALID PUSH1 0x80 PUSH1 0x40 MSTORE CALLVALUE DUP1 ISZERO PUSH2 0xF JUMPI PUSH0 DUP1 REVERT JUMPDEST POP PUSH1 0x4 CALLDATASIZE LT PUSH2 0x4A JUMPI PUSH0 CALLDATALOAD PUSH1 0xE0 SHR DUP1 PUSH4 0xA293D1E8 EQ PUSH2 0x4E JUMPI DUP1 PUSH4 0xB5931F7C EQ PUSH2 0x7E JUMPI DUP1 PUSH4 0xD05C78DA EQ PUSH2 0xAE JUMPI DUP1 PUSH4 0xE6CB9013 EQ PUSH2 0xDE JUMPI JUMPDEST PUSH0 DUP1 REVERT JUMPDEST PUSH2 0x68 PUSH1 0x4 DUP1 CALLDATASIZE SUB DUP2 ADD SWAP1 PUSH2 0x63 SWAP2 SWAP1 PUSH2 0x2B8 JUMP JUMPDEST PUSH2 0x10E JUMP JUMPDEST PUSH1 0x40 MLOAD PUSH2 0x75 SWAP2 SWAP1 PUSH2 0x305 JUMP JUMPDEST PUSH1 0x40 MLOAD DUP1 SWAP2 SUB SWAP1 RETURN JUMPDEST PUSH2 0x98 PUSH1 0x4 DUP1 CALLDATASIZE SUB DUP2 ADD SWAP1 PUSH2 0x93 SWAP2 SWAP1 PUSH2 0x2B8 JUMP JUMPDEST PUSH2 0x166 JUMP JUMPDEST PUSH1 0x40 MLOAD PUSH2 0xA5 SWAP2 SWAP1 PUSH2 0x305 JUMP JUMPDEST PUSH1 0x40 MLOAD DUP1 SWAP2 SUB SWAP1 RETURN JUMPDEST PUSH2 0xC8 PUSH1 0x4 DUP1 CALLDATASIZE SUB DUP2 ADD SWAP1 PUSH2 0xC3 SWAP2 SWAP1 PUSH2 0x2B8 JUMP JUMPDEST PUSH2 0x1BD JUMP JUMPDEST PUSH1 0x40 MLOAD PUSH2 0xD5 SWAP2 SWAP1 PUSH2 0x305 JUMP JUMPDEST PUSH1 0x40 MLOAD DUP1 SWAP2 SUB SWAP1 RETURN JUMPDEST PUSH2 0xF8 PUSH1 0x4 DUP1 CALLDATASIZE SUB DUP2 ADD SWAP1 PUSH2 0xF3 SWAP2 SWAP1 PUSH2 0x2B8 JUMP JUMPDEST PUSH2 0x229 JUMP JUMPDEST PUSH1 0x40 MLOAD PUSH2 0x105 SWAP2 SWAP1 PUSH2 0x305 JUMP JUMPDEST PUSH1 0x40 MLOAD DUP1 SWAP2 SUB SWAP1 RETURN JUMPDEST PUSH0 DUP3 DUP3 GT ISZERO PUSH2 0x152 JUMPI PUSH1 0x40 MLOAD PUSH32 0x8C379A000000000000000000000000000000000000000000000000000000000 DUP2 MSTORE PUSH1 0x4 ADD PUSH2 0x149 SWAP1 PUSH2 0x378 JUMP JUMPDEST PUSH1 0x40 MLOAD DUP1 SWAP2 SUB SWAP1 REVERT JUMPDEST DUP2 DUP4 PUSH2 0x15E SWAP2 SWAP1 PUSH2 0x3C3 JUMP JUMPDEST SWAP1 POP SWAP3 SWAP2 POP POP JUMP JUMPDEST PUSH0 DUP1 DUP3 GT PUSH2 0x1A9 JUMPI PUSH1 0x40 MLOAD PUSH32 0x8C379A000000000000000000000000000000000000000000000000000000000 DUP2 MSTORE PUSH1 0x4 ADD PUSH2 0x1A0 SWAP1 PUSH2 0x440 JUMP JUMPDEST PUSH1 0x40 MLOAD DUP1 SWAP2 SUB SWAP1 REVERT JUMPDEST DUP2 DUP4 PUSH2 0x1B5 SWAP2 SWAP1 PUSH2 0x48B JUMP JUMPDEST SWAP1 POP SWAP3 SWAP2 POP POP JUMP JUMPDEST PUSH0 DUP2 DUP4 PUSH2 0x1CA SWAP2 SWAP1 PUSH2 0x4BB JUMP JUMPDEST SWAP1 POP PUSH0 DUP4 EQ DUP1 PUSH2 0x1E4 JUMPI POP DUP2 DUP4 DUP3 PUSH2 0x1E2 SWAP2 SWAP1 PUSH2 0x48B JUMP JUMPDEST EQ JUMPDEST PUSH2 0x223 JUMPI PUSH1 0x40 MLOAD PUSH32 0x8C379A000000000000000000000000000000000000000000000000000000000 DUP2 MSTORE PUSH1 0x4 ADD PUSH2 0x21A SWAP1 PUSH2 0x546 JUMP JUMPDEST PUSH1 0x40 MLOAD DUP1 SWAP2 SUB SWAP1 REVERT JUMPDEST SWAP3 SWAP2 POP POP JUMP JUMPDEST PUSH0 DUP2 DUP4 PUSH2 0x236 SWAP2 SWAP1 PUSH2 0x564 JUMP JUMPDEST SWAP1 POP DUP3 DUP2 LT ISZERO PUSH2 0x27B JUMPI PUSH1 0x40 MLOAD PUSH32 0x8C379A000000000000000000000000000000000000000000000000000000000 DUP2 MSTORE PUSH1 0x4 ADD PUSH2 0x272 SWAP1 PUSH2 0x5E1 JUMP JUMPDEST PUSH1 0x40 MLOAD DUP1 SWAP2 SUB SWAP1 REVERT JUMPDEST SWAP3 SWAP2 POP POP JUMP JUMPDEST PUSH0 DUP1 REVERT JUMPDEST PUSH0 DUP2 SWAP1 POP SWAP2 SWAP1 POP JUMP JUMPDEST PUSH2 0x297 DUP2 PUSH2 0x285 JUMP JUMPDEST DUP2 EQ PUSH2 0x2A1 JUMPI PUSH0 DUP1 REVERT JUMPDEST POP JUMP JUMPDEST PUSH0 DUP2 CALLDATALOAD SWAP1 POP PUSH2 0x2B2 DUP2 PUSH2 0x28E JUMP JUMPDEST SWAP3 SWAP2 POP POP JUMP JUMPDEST PUSH0 DUP1 PUSH1 0x40 DUP4 DUP6 SUB SLT ISZERO PUSH2 0x2CE JUMPI PUSH2 0x2CD PUSH2 0x281 JUMP JUMPDEST JUMPDEST PUSH0 PUSH2 0x2DB DUP6 DUP3 DUP7 ADD PUSH2 0x2A4 JUMP JUMPDEST SWAP3 POP POP PUSH1 0x20 PUSH2 0x2EC DUP6 DUP3 DUP7 ADD PUSH2 0x2A4 JUMP JUMPDEST SWAP2 POP POP SWAP3 POP SWAP3 SWAP1 POP JUMP JUMPDEST PUSH2 0x2FF DUP2 PUSH2 0x285 JUMP JUMPDEST DUP3 MSTORE POP POP JUMP JUMPDEST PUSH0 PUSH1 0x20 DUP3 ADD SWAP1 POP PUSH2 0x318 PUSH0 DUP4 ADD DUP5 PUSH2 0x2F6 JUMP JUMPDEST SWAP3 SWAP2 POP POP JUMP JUMPDEST PUSH0 DUP3 DUP3 MSTORE PUSH1 0x20 DUP3 ADD SWAP1 POP SWAP3 SWAP2 POP POP JUMP JUMPDEST PUSH32 0x5375627472616374696F6E20756E646572666C6F770000000000000000000000 PUSH0 DUP3 ADD MSTORE POP JUMP JUMPDEST PUSH0 PUSH2 0x362 PUSH1 0x15 DUP4 PUSH2 0x31E JUMP JUMPDEST SWAP2 POP PUSH2 0x36D DUP3 PUSH2 0x32E JUMP JUMPDEST PUSH1 0x20 DUP3 ADD SWAP1 POP SWAP2 SWAP1 POP JUMP JUMPDEST PUSH0 PUSH1 0x20 DUP3 ADD SWAP1 POP DUP2 DUP2 SUB PUSH0 DUP4 ADD MSTORE PUSH2 0x38F DUP2 PUSH2 0x356 JUMP JUMPDEST SWAP1 POP SWAP2 SWAP1 POP JUMP JUMPDEST PUSH32 0x4E487B7100000000000000000000000000000000000000000000000000000000 PUSH0 MSTORE PUSH1 0x11 PUSH1 0x4 MSTORE PUSH1 0x24 PUSH0 REVERT JUMPDEST PUSH0 PUSH2 0x3CD DUP3 PUSH2 0x285 JUMP JUMPDEST SWAP2 POP PUSH2 0x3D8 DUP4 PUSH2 0x285 JUMP JUMPDEST SWAP3 POP DUP3 DUP3 SUB SWAP1 POP DUP2 DUP2 GT ISZERO PUSH2 0x3F0 JUMPI PUSH2 0x3EF PUSH2 0x396 JUMP JUMPDEST JUMPDEST SWAP3 SWAP2 POP POP JUMP JUMPDEST PUSH32 0x4469766973696F6E206279207A65726F00000000000000000000000000000000 PUSH0 DUP3 ADD MSTORE POP JUMP JUMPDEST PUSH0 PUSH2 0x42A PUSH1 0x10 DUP4 PUSH2 0x31E JUMP JUMPDEST SWAP2 POP PUSH2 0x435 DUP3 PUSH2 0x3F6 JUMP JUMPDEST PUSH1 0x20 DUP3 ADD SWAP1 POP SWAP2 SWAP1 POP JUMP JUMPDEST PUSH0 PUSH1 0x20 DUP3 ADD SWAP1 POP DUP2 DUP2 SUB PUSH0 DUP4 ADD MSTORE PUSH2 0x457 DUP2 PUSH2 0x41E JUMP JUMPDEST SWAP1 POP SWAP2 SWAP1 POP JUMP JUMPDEST PUSH32 0x4E487B7100000000000000000000000000000000000000000000000000000000 PUSH0 MSTORE PUSH1 0x12 PUSH1 0x4 MSTORE PUSH1 0x24 PUSH0 REVERT JUMPDEST PUSH0 PUSH2 0x495 DUP3 PUSH2 0x285 JUMP JUMPDEST SWAP2 POP PUSH2 0x4A0 DUP4 PUSH2 0x285 JUMP JUMPDEST SWAP3 POP DUP3 PUSH2 0x4B0 JUMPI PUSH2 0x4AF PUSH2 0x45E JUMP JUMPDEST JUMPDEST DUP3 DUP3 DIV SWAP1 POP SWAP3 SWAP2 POP POP JUMP JUMPDEST PUSH0 PUSH2 0x4C5 DUP3 PUSH2 0x285 JUMP JUMPDEST SWAP2 POP PUSH2 0x4D0 DUP4 PUSH2 0x285 JUMP JUMPDEST SWAP3 POP DUP3 DUP3 MUL PUSH2 0x4DE DUP2 PUSH2 0x285 JUMP JUMPDEST SWAP2 POP DUP3 DUP3 DIV DUP5 EQ DUP4 ISZERO OR PUSH2 0x4F5 JUMPI PUSH2 0x4F4 PUSH2 0x396 JUMP JUMPDEST JUMPDEST POP SWAP3 SWAP2 POP POP JUMP JUMPDEST PUSH32 0x4D756C7469706C69636174696F6E206F766572666C6F77000000000000000000 PUSH0 DUP3 ADD MSTORE POP JUMP JUMPDEST PUSH0 PUSH2 0x530 PUSH1 0x17 DUP4 PUSH2 0x31E JUMP JUMPDEST SWAP2 POP PUSH2 0x53B DUP3 PUSH2 0x4FC JUMP JUMPDEST PUSH1 0x20 DUP3 ADD SWAP1 POP SWAP2 SWAP1 POP JUMP JUMPDEST PUSH0 PUSH1 0x20 DUP3 ADD SWAP1 POP DUP2 DUP2 SUB PUSH0 DUP4 ADD MSTORE PUSH2 0x55D DUP2 PUSH2 0x524 JUMP JUMPDEST SWAP1 POP SWAP2 SWAP1 POP JUMP JUMPDEST PUSH0 PUSH2 0x56E DUP3 PUSH2 0x285 JUMP JUMPDEST SWAP2 POP PUSH2 0x579 DUP4 PUSH2 0x285 JUMP JUMPDEST SWAP3 POP DUP3 DUP3 ADD SWAP1 POP DUP1 DUP3 GT ISZERO PUSH2 0x591 JUMPI PUSH2 0x590 PUSH2 0x396 JUMP JUMPDEST JUMPDEST SWAP3 SWAP2 POP POP JUMP JUMPDEST PUSH32 0x4164646974696F6E206F766572666C6F77000000000000000000000000000000 PUSH0 DUP3 ADD MSTORE POP JUMP JUMPDEST PUSH0 PUSH2 0x5CB PUSH1 0x11 DUP4 PUSH2 0x31E JUMP JUMPDEST SWAP2 POP PUSH2 0x5D6 DUP3 PUSH2 0x597 JUMP JUMPDEST PUSH1 0x20 DUP3 ADD SWAP1 POP SWAP2 SWAP1 POP JUMP JUMPDEST PUSH0 PUSH1 0x20 DUP3 ADD SWAP1 POP DUP2 DUP2 SUB PUSH0 DUP4 ADD MSTORE PUSH2 0x5F8 DUP2 PUSH2 0x5BF JUMP JUMPDEST SWAP1 POP SWAP2 SWAP1 POP JUMP INVALID LOG2 PUSH5 0x6970667358 0x22 SLT KECCAK256 0xB7 0xCA 0x22 0x4B PUSH0 MUL PUSH29 0xC5DC3523B5FAEC7ECCE129539A9706ED72598772EDBDB7275664736F6C PUSH4 0x4300081A STOP CALLER "
				},
				"gasEstimates": {
					"creation": {
						"codeDepositCost": "317800",
						"executionCost": "353",
						"totalCost": "318153"
					},
					"external": {
						"safeAdd(uint256,uint256)": "infinite",
						"safeDiv(uint256,uint256)": "infinite",
						"safeMul(uint256,uint256)": "infinite",
						"safeSub(uint256,uint256)": "infinite"
					}
				},
				"methodIdentifiers": {
					"safeAdd(uint256,uint256)": "e6cb9013",
					"safeDiv(uint256,uint256)": "b5931f7c",
					"safeMul(uint256,uint256)": "d05c78da",
					"safeSub(uint256,uint256)": "a293d1e8"
				}
			},
			"storageLayout": {
				"storage": [],
				"types": null
			},
			"userdoc": {
				"kind": "user",
				"methods": {},
				"version": 1
			}
		}
	}
}